{
  "_format": "hh-sol-artifact-1",
  "contractName": "ConveyorV2Router01",
  "sourceName": "contracts/ConveyorV2Router01.sol",
  "abi": [
    {
      "inputs": [
        {
          "internalType": "address",
          "name": "_factory",
          "type": "address"
        }
      ],
      "stateMutability": "nonpayable",
      "type": "constructor"
    },
    {
      "anonymous": false,
      "inputs": [
        {
          "indexed": false,
          "internalType": "address",
          "name": "sender",
          "type": "address"
        },
        {
          "indexed": false,
          "internalType": "bool",
          "name": "success",
          "type": "bool"
        },
        {
          "indexed": false,
          "internalType": "string",
          "name": "error",
          "type": "string"
        }
      ],
      "name": "MetaStatus",
      "type": "event"
    },
    {
      "anonymous": false,
      "inputs": [
        {
          "indexed": true,
          "internalType": "address",
          "name": "previousOwner",
          "type": "address"
        },
        {
          "indexed": true,
          "internalType": "address",
          "name": "newOwner",
          "type": "address"
        }
      ],
      "name": "OwnershipTransferred",
      "type": "event"
    },
    {
      "inputs": [],
      "name": "DOMAIN_TYPEHASH",
      "outputs": [
        {
          "internalType": "bytes32",
          "name": "",
          "type": "bytes32"
        }
      ],
      "stateMutability": "view",
      "type": "function"
    },
    {
      "inputs": [],
      "name": "FORWARDER_TYPEHASH",
      "outputs": [
        {
          "internalType": "bytes32",
          "name": "",
          "type": "bytes32"
        }
      ],
      "stateMutability": "view",
      "type": "function"
    },
    {
      "inputs": [
        {
          "components": [
            {
              "internalType": "address",
              "name": "tokenA",
              "type": "address"
            },
            {
              "internalType": "address",
              "name": "tokenB",
              "type": "address"
            },
            {
              "internalType": "uint256",
              "name": "amountADesired",
              "type": "uint256"
            },
            {
              "internalType": "uint256",
              "name": "amountBDesired",
              "type": "uint256"
            },
            {
              "internalType": "uint256",
              "name": "amountAMin",
              "type": "uint256"
            },
            {
              "internalType": "uint256",
              "name": "amountBMin",
              "type": "uint256"
            },
            {
              "internalType": "address",
              "name": "user",
              "type": "address"
            },
            {
              "internalType": "uint256",
              "name": "deadline",
              "type": "uint256"
            }
          ],
          "internalType": "struct ConveyorV2Types.ADDLIQUIDITY_TYPE",
          "name": "al",
          "type": "tuple"
        }
      ],
      "name": "addLiquidity",
      "outputs": [
        {
          "internalType": "uint256",
          "name": "amountA",
          "type": "uint256"
        },
        {
          "internalType": "uint256",
          "name": "amountB",
          "type": "uint256"
        },
        {
          "internalType": "uint256",
          "name": "liquidity",
          "type": "uint256"
        }
      ],
      "stateMutability": "nonpayable",
      "type": "function"
    },
    {
      "inputs": [
        {
          "components": [
            {
              "internalType": "address",
              "name": "from",
              "type": "address"
            },
            {
              "internalType": "address",
              "name": "feeToken",
              "type": "address"
            },
            {
              "internalType": "uint256",
              "name": "maxTokenAmount",
              "type": "uint256"
            },
            {
              "internalType": "uint256",
              "name": "deadline",
              "type": "uint256"
            },
            {
              "internalType": "uint256",
              "name": "nonce",
              "type": "uint256"
            },
            {
              "internalType": "bytes",
              "name": "data",
              "type": "bytes"
            },
            {
              "internalType": "bytes32",
              "name": "hashedPayload",
              "type": "bytes32"
            }
          ],
          "internalType": "struct ERC20Forwarder.MetaTransaction",
          "name": "metatx",
          "type": "tuple"
        },
        {
          "internalType": "string",
          "name": "domainName",
          "type": "string"
        },
        {
          "internalType": "uint256",
          "name": "tokenPricePerNativeToken",
          "type": "uint256"
        },
        {
          "internalType": "uint256",
          "name": "feeOffset",
          "type": "uint256"
        },
        {
          "components": [
            {
              "internalType": "uint8",
              "name": "v",
              "type": "uint8"
            },
            {
              "internalType": "bytes32",
              "name": "r",
              "type": "bytes32"
            },
            {
              "internalType": "bytes32",
              "name": "s",
              "type": "bytes32"
            }
          ],
          "internalType": "struct ERC20Forwarder.SIGNATURE_TYPE",
          "name": "sig",
          "type": "tuple"
        }
      ],
      "name": "executeMetaTx",
      "outputs": [
        {
          "internalType": "bool",
          "name": "success",
          "type": "bool"
        },
        {
          "internalType": "bytes",
          "name": "data",
          "type": "bytes"
        }
      ],
      "stateMutability": "nonpayable",
      "type": "function"
    },
    {
      "inputs": [],
      "name": "factory",
      "outputs": [
        {
          "internalType": "address",
          "name": "",
          "type": "address"
        }
      ],
      "stateMutability": "view",
      "type": "function"
    },
    {
      "inputs": [],
      "name": "feeHolder",
      "outputs": [
        {
          "internalType": "address",
          "name": "",
          "type": "address"
        }
      ],
      "stateMutability": "view",
      "type": "function"
    },
    {
      "inputs": [
        {
          "internalType": "uint256",
          "name": "amountOut",
          "type": "uint256"
        },
        {
          "internalType": "uint256",
          "name": "reserveIn",
          "type": "uint256"
        },
        {
          "internalType": "uint256",
          "name": "reserveOut",
          "type": "uint256"
        }
      ],
      "name": "getAmountIn",
      "outputs": [
        {
          "internalType": "uint256",
          "name": "amountIn",
          "type": "uint256"
        }
      ],
      "stateMutability": "pure",
      "type": "function"
    },
    {
      "inputs": [
        {
          "internalType": "uint256",
          "name": "amountIn",
          "type": "uint256"
        },
        {
          "internalType": "uint256",
          "name": "reserveIn",
          "type": "uint256"
        },
        {
          "internalType": "uint256",
          "name": "reserveOut",
          "type": "uint256"
        }
      ],
      "name": "getAmountOut",
      "outputs": [
        {
          "internalType": "uint256",
          "name": "amountOut",
          "type": "uint256"
        }
      ],
      "stateMutability": "pure",
      "type": "function"
    },
    {
      "inputs": [
        {
          "internalType": "uint256",
          "name": "amountOut",
          "type": "uint256"
        },
        {
          "internalType": "address[]",
          "name": "path",
          "type": "address[]"
        }
      ],
      "name": "getAmountsIn",
      "outputs": [
        {
          "internalType": "uint256[]",
          "name": "amounts",
          "type": "uint256[]"
        }
      ],
      "stateMutability": "view",
      "type": "function"
    },
    {
      "inputs": [
        {
          "internalType": "uint256",
          "name": "amountIn",
          "type": "uint256"
        },
        {
          "internalType": "address[]",
          "name": "path",
          "type": "address[]"
        }
      ],
      "name": "getAmountsOut",
      "outputs": [
        {
          "internalType": "uint256[]",
          "name": "amounts",
          "type": "uint256[]"
        }
      ],
      "stateMutability": "view",
      "type": "function"
    },
    {
      "inputs": [],
      "name": "metaEnabled",
      "outputs": [
        {
          "internalType": "bool",
          "name": "",
          "type": "bool"
        }
      ],
      "stateMutability": "view",
      "type": "function"
    },
    {
      "inputs": [],
      "name": "metaSwitch",
      "outputs": [],
      "stateMutability": "nonpayable",
      "type": "function"
    },
    {
      "inputs": [
        {
          "internalType": "address",
          "name": "",
          "type": "address"
        }
      ],
      "name": "nonces",
      "outputs": [
        {
          "internalType": "uint256",
          "name": "",
          "type": "uint256"
        }
      ],
      "stateMutability": "view",
      "type": "function"
    },
    {
      "inputs": [],
      "name": "owner",
      "outputs": [
        {
          "internalType": "address",
          "name": "",
          "type": "address"
        }
      ],
      "stateMutability": "view",
      "type": "function"
    },
    {
      "inputs": [
        {
          "internalType": "uint256",
          "name": "amountA",
          "type": "uint256"
        },
        {
          "internalType": "uint256",
          "name": "reserveA",
          "type": "uint256"
        },
        {
          "internalType": "uint256",
          "name": "reserveB",
          "type": "uint256"
        }
      ],
      "name": "quote",
      "outputs": [
        {
          "internalType": "uint256",
          "name": "amountB",
          "type": "uint256"
        }
      ],
      "stateMutability": "pure",
      "type": "function"
    },
    {
      "inputs": [
        {
          "internalType": "address",
          "name": "",
          "type": "address"
        }
      ],
      "name": "relayers",
      "outputs": [
        {
          "internalType": "bool",
          "name": "",
          "type": "bool"
        }
      ],
      "stateMutability": "view",
      "type": "function"
    },
    {
      "inputs": [
        {
          "components": [
            {
              "internalType": "address",
              "name": "tokenA",
              "type": "address"
            },
            {
              "internalType": "address",
              "name": "tokenB",
              "type": "address"
            },
            {
              "internalType": "uint256",
              "name": "liquidity",
              "type": "uint256"
            },
            {
              "internalType": "uint256",
              "name": "amountAMin",
              "type": "uint256"
            },
            {
              "internalType": "uint256",
              "name": "amountBMin",
              "type": "uint256"
            },
            {
              "internalType": "address",
              "name": "user",
              "type": "address"
            },
            {
              "internalType": "uint256",
              "name": "deadline",
              "type": "uint256"
            }
          ],
          "internalType": "struct ConveyorV2Types.REMOVELIQUIDITY_TYPE",
          "name": "rl",
          "type": "tuple"
        },
        {
          "components": [
            {
              "internalType": "uint8",
              "name": "v",
              "type": "uint8"
            },
            {
              "internalType": "bytes32",
              "name": "r",
              "type": "bytes32"
            },
            {
              "internalType": "bytes32",
              "name": "s",
              "type": "bytes32"
            }
          ],
          "internalType": "struct ConveyorV2Types.SIGNATURE_TYPE",
          "name": "sig",
          "type": "tuple"
        }
      ],
      "name": "removeLiquidityWithPermit",
      "outputs": [
        {
          "internalType": "uint256",
          "name": "amountA",
          "type": "uint256"
        },
        {
          "internalType": "uint256",
          "name": "amountB",
          "type": "uint256"
        }
      ],
      "stateMutability": "nonpayable",
      "type": "function"
    },
    {
      "inputs": [],
      "name": "renounceOwnership",
      "outputs": [],
      "stateMutability": "nonpayable",
      "type": "function"
    },
    {
      "inputs": [
        {
          "internalType": "uint256",
          "name": "_newConstantFee",
          "type": "uint256"
        }
      ],
      "name": "setConstantFee",
      "outputs": [],
      "stateMutability": "nonpayable",
      "type": "function"
    },
    {
      "inputs": [
        {
          "internalType": "address",
          "name": "_feeHolder",
          "type": "address"
        }
      ],
      "name": "setFeeHolder",
      "outputs": [],
      "stateMutability": "nonpayable",
      "type": "function"
    },
    {
      "inputs": [
        {
          "internalType": "address",
          "name": "_relayer",
          "type": "address"
        },
        {
          "internalType": "bool",
          "name": "_trusted",
          "type": "bool"
        }
      ],
      "name": "setRelayer",
      "outputs": [],
      "stateMutability": "nonpayable",
      "type": "function"
    },
    {
      "inputs": [
        {
          "internalType": "uint256",
          "name": "_newTransferFee",
          "type": "uint256"
        }
      ],
      "name": "setTransferFee",
      "outputs": [],
      "stateMutability": "nonpayable",
      "type": "function"
    },
    {
      "inputs": [
        {
          "components": [
            {
              "internalType": "uint256",
              "name": "amount0",
              "type": "uint256"
            },
            {
              "internalType": "uint256",
              "name": "amount1",
              "type": "uint256"
            },
            {
              "internalType": "address[]",
              "name": "path",
              "type": "address[]"
            },
            {
              "internalType": "address",
              "name": "user",
              "type": "address"
            },
            {
              "internalType": "uint256",
              "name": "deadline",
              "type": "uint256"
            }
          ],
          "internalType": "struct ConveyorV2Types.SWAP_TYPE",
          "name": "swap",
          "type": "tuple"
        }
      ],
      "name": "swapExactTokensForTokens",
      "outputs": [
        {
          "internalType": "uint256[]",
          "name": "amounts",
          "type": "uint256[]"
        }
      ],
      "stateMutability": "nonpayable",
      "type": "function"
    },
    {
      "inputs": [
        {
          "components": [
            {
              "internalType": "uint256",
              "name": "amount0",
              "type": "uint256"
            },
            {
              "internalType": "uint256",
              "name": "amount1",
              "type": "uint256"
            },
            {
              "internalType": "address[]",
              "name": "path",
              "type": "address[]"
            },
            {
              "internalType": "address",
              "name": "user",
              "type": "address"
            },
            {
              "internalType": "uint256",
              "name": "deadline",
              "type": "uint256"
            }
          ],
          "internalType": "struct ConveyorV2Types.SWAP_TYPE",
          "name": "swap",
          "type": "tuple"
        }
      ],
      "name": "swapTokensForExactTokens",
      "outputs": [
        {
          "internalType": "uint256[]",
          "name": "amounts",
          "type": "uint256[]"
        }
      ],
      "stateMutability": "nonpayable",
      "type": "function"
    },
    {
      "inputs": [
        {
          "internalType": "address",
          "name": "newOwner",
          "type": "address"
        }
      ],
      "name": "transferOwnership",
      "outputs": [],
      "stateMutability": "nonpayable",
      "type": "function"
    }
  ],
  "bytecode": "0x60a0604052615208600190815561fde86002556006805460ff191690911790553480156200002c57600080fd5b5060405162003c7038038062003c708339810160408190526200004f91620000d4565b6200005a3362000084565b60048054336001600160a01b031990911617905560601b6001600160601b03191660805262000104565b600080546001600160a01b038381166001600160a01b0319831681178455604051919092169283917f8be0079c531659141344cd1fd0a4f28419497f9722a3daafe3b4186f6b6457e09190a35050565b600060208284031215620000e6578081fd5b81516001600160a01b0381168114620000fd578182fd5b9392505050565b60805160601c613af9620001776000396000818161034f015281816108ae015281816109a001528181610e3701528181610f41015281816112a9015281816113640152818161174001528181611e8801528181611f3a01528181611fc00152818161269401526126e50152613af96000f3fe608060405234801561001057600080fd5b50600436106101735760003560e01c80638a35b5e5116100de578063d06ca61f11610097578063e2a1ffac11610071578063e2a1ffac146103cc578063ecd8dc3a146103d4578063f208e6ab146103e7578063f2fde38b146103fa57610173565b8063d06ca61f14610384578063d4f323ca14610397578063dad83f1e146103a457610173565b80638a35b5e5146102f15780638da5cb5b146103045780638f02bb5b14610324578063ad615dec14610337578063c45a01551461034a578063cc6be5e41461037157610173565b8063237902161161013057806323790216146102425780635300f8411461027057806367e09bef146102a3578063715018a6146102b65780637ecebe00146102be57806385f8c259146102de57610173565b8063054d50d41461017857806310407f2f1461019e578063117b98cc146101b35780631f00ca74146101d45780631f09a72e146101f457806320606b701461021b575b600080fd5b61018b6101863660046135e6565b61040d565b6040519081526020015b60405180910390f35b6101b16101ac366004613133565b610424565b005b6101c66101c13660046132bf565b61047e565b604051610195929190613700565b6101e76101e236600461357e565b6108a7565b60405161019591906136bc565b61018b7fef1224019adeddaa744f5c3109d745485aa3a6c424cb8457450389e20dfc4d5c81565b61018b7f8b73c3c69bb8fe3d512ecc4cf759cc79239f7b179b0ffacaa9a75d522b39400f81565b610255610250366004613232565b6108d4565b60408051938452602084019290925290820152606001610195565b61029361027e366004613133565b60036020526000908152604090205460ff1681565b6040519015158152602001610195565b6101b16102b136600461354e565b610d29565b6101b1610d5d565b61018b6102cc366004613133565b60056020526000908152604090205481565b61018b6102ec3660046135e6565b610d98565b6101e76102ff36600461345e565b610da5565b61030c611251565b6040516001600160a01b039091168152602001610195565b6101b161033236600461354e565b611261565b61018b6103453660046135e6565b611295565b61030c7f000000000000000000000000000000000000000000000000000000000000000081565b60045461030c906001600160a01b031681565b6101e761039236600461357e565b6112a2565b6006546102939060ff1681565b6103b76103b23660046133bf565b6112cf565b60408051928352602083019190915201610195565b6101b1611611565b6101b16103e236600461316b565b611654565b6101e76103f536600461345e565b6116ae565b6101b1610408366004613133565b6117fd565b600061041a84848461189d565b90505b9392505050565b3361042d611251565b6001600160a01b03161461045c5760405162461bcd60e51b8152600401610453906137bc565b60405180910390fd5b600480546001600160a01b0319166001600160a01b0392909216919091179055565b3360009081526003602052604081205460609060ff166104f25760405162461bcd60e51b815260206004820152602960248201527f4552433230466f727761726465724572726f723a20556e617574686f72697a65604482015268642043616c6c65722160b81b6064820152608401610453565b60005a905060008589604001516105099190613988565b60208a01518a516040516370a0823160e01b81526001600160a01b03918216600482015292935083929116906370a082319060240160206040518083038186803b15801561055657600080fd5b505afa15801561056a573d6000803e3d6000fd5b505050506040513d601f19601f8201168201806040525081019061058e9190613566565b10156105ee5760405162461bcd60e51b815260206004820152602960248201527f4552433230466f727761726465724572726f723a20496e73756666696369656e604482015268742062616c616e636560b81b6064820152608401610453565b6000670de0b6b3a76400003a6106048a866139c0565b61060e91906139c0565b61061891906139a0565b9050808210156106835760405162461bcd60e51b815260206004820152603060248201527f4552433230466f727761726465724572726f723a20496e73756666696369656e60448201526f1d081b585e151bdad95b905b5bdd5b9d60821b6064820152608401610453565b600061068e8b61196a565b9050600061069c8b83611a4c565b90506106bb818d600001518a600001518b602001518c60400151611b2b565b6107165760405162461bcd60e51b815260206004820152602660248201527f4552433230466f727761726465724572726f723a20496e76616c6964207369676044820152656e617475726560d01b6064820152608401610453565b5050505060006107298960a00151611b6f565b90506000356001600160e01b0319908116908216148015906107d35760a08a01518a51604051309261075f929091602001613659565b60408051601f19818403018152908290526107799161363d565b6000604051808303816000865af19150503d80600081146107b6576040519150601f19603f3d011682016040523d82523d6000602084013e6107bb565b606091505b508b5191965094506107ce908686611b8b565b610867565b8951604080516001600160a01b0390921682526000602083015260608282018190526031908301527f4552433230466f727761726465724661696c7572653a20496e76616c69642066608083015270756e6374696f6e207369676e617475726560781b60a0830152517ff624f223d0e1427abaf1ac2d9cf7c8487cad3018f0a93b5dafa867aed96165a39181900360c00190a15b60006108733a8a6139c0565b905060005a61088290866139df565b90506108988c600001518d602001518385611bdf565b50505050509550959350505050565b606061041d7f00000000000000000000000000000000000000000000000000000000000000008484611c44565b60008060008360e00151428110156108fe5760405162461bcd60e51b815260040161045390613828565b60065460ff1615610928573330146109285760405162461bcd60e51b8152600401610453906138bc565b8460c001516001600160a01b031661093e611e2e565b6001600160a01b0316146109645760405162461bcd60e51b81526004016104539061385f565b61098a856000015186602001518760400151886060015189608001518a60a00151611e5a565b865160208801519296509094506000916109c5917f0000000000000000000000000000000000000000000000000000000000000000916120ab565b86516040516370a0823160e01b81526001600160a01b038084166004830152929350600092909116906370a082319060240160206040518083038186803b158015610a0f57600080fd5b505afa158015610a23573d6000803e3d6000fd5b505050506040513d601f19601f82011682018060405250810190610a479190613566565b60208801516040516370a0823160e01b81526001600160a01b038581166004830152929350600092909116906370a082319060240160206040518083038186803b158015610a9457600080fd5b505afa158015610aa8573d6000803e3d6000fd5b505050506040513d601f19601f82011682018060405250810190610acc9190613566565b9050610ae58860000151610ade611e2e565b858a61216f565b610afc8860200151610af5611e2e565b858961216f565b87516040516370a0823160e01b81526001600160a01b038581166004830152899285929116906370a082319060240160206040518083038186803b158015610b4357600080fd5b505afa158015610b57573d6000803e3d6000fd5b505050506040513d601f19601f82011682018060405250810190610b7b9190613566565b610b8591906139df565b148015610c1b575060208801516040516370a0823160e01b81526001600160a01b038581166004830152889284929116906370a082319060240160206040518083038186803b158015610bd757600080fd5b505afa158015610beb573d6000803e3d6000fd5b505050506040513d601f19601f82011682018060405250810190610c0f9190613566565b610c1991906139df565b145b610c8d5760405162461bcd60e51b815260206004820152603f60248201527f436f6e7665796f725632526f7574657230313a205472616e7366657220616d6f60448201527f756e7420646f6573206e6f74206d6174636820696e70757420616d6f756e74006064820152608401610453565b5050806001600160a01b0316636a627842610ca6611e2e565b6040516001600160e01b031960e084901b1681526001600160a01b039091166004820152602401602060405180830381600087803b158015610ce757600080fd5b505af1158015610cfb573d6000803e3d6000fd5b505050506040513d601f19601f82011682018060405250810190610d1f9190613566565b9496939550505050565b33610d32611251565b6001600160a01b031614610d585760405162461bcd60e51b8152600401610453906137bc565b600155565b33610d66611251565b6001600160a01b031614610d8c5760405162461bcd60e51b8152600401610453906137bc565b610d9660006122a5565b565b600061041a8484846122f5565b6060816080015142811015610dcc5760405162461bcd60e51b815260040161045390613828565b60065460ff1615610df657333014610df65760405162461bcd60e51b8152600401610453906138bc565b82606001516001600160a01b0316610e0c611e2e565b6001600160a01b031614610e325760405162461bcd60e51b81526004016104539061385f565b610e657f0000000000000000000000000000000000000000000000000000000000000000846000015185604001516123bd565b915082602001518260018451610e7b91906139df565b81518110610e9957634e487b7160e01b600052603260045260246000fd5b60200260200101511015610f045760405162461bcd60e51b815260206004820152602c60248201527f436f6e7665796f725632526f757465723a20494e53554646494349454e545f4f60448201526b155514155517d05353d5539560a21b6064820152608401610453565b610fed8360400151600081518110610f2c57634e487b7160e01b600052603260045260246000fd5b6020026020010151610f3c611e2e565b610fbf7f00000000000000000000000000000000000000000000000000000000000000008760400151600081518110610f8557634e487b7160e01b600052603260045260246000fd5b60200260200101518860400151600181518110610fb257634e487b7160e01b600052603260045260246000fd5b60200260200101516120ab565b85600081518110610fe057634e487b7160e01b600052603260045260246000fd5b602002602001015161216f565b6040830151805160009190611004906001906139df565b8151811061102257634e487b7160e01b600052603260045260246000fd5b60200260200101516001600160a01b03166370a08231611040611e2e565b6040516001600160e01b031960e084901b1681526001600160a01b03909116600482015260240160206040518083038186803b15801561107f57600080fd5b505afa158015611093573d6000803e3d6000fd5b505050506040513d601f19601f820116820180604052508101906110b79190613566565b90506110cf8385604001516110ca611e2e565b612587565b82600184516110de91906139df565b815181106110fc57634e487b7160e01b600052603260045260246000fd5b60200260200101518161110f9190613988565b60408501518051611122906001906139df565b8151811061114057634e487b7160e01b600052603260045260246000fd5b60200260200101516001600160a01b03166370a0823161115e611e2e565b6040516001600160e01b031960e084901b1681526001600160a01b03909116600482015260240160206040518083038186803b15801561119d57600080fd5b505afa1580156111b1573d6000803e3d6000fd5b505050506040513d601f19601f820116820180604052508101906111d59190613566565b1461124a576040805162461bcd60e51b81526020600482015260248101919091527f436f6e7665796f725632526f7574657230313a205472616e7366657220616d6f60448201527f756e7420646f6573206e6f74206d61746368206f757470757420616d6f756e746064820152608401610453565b5050919050565b6000546001600160a01b03165b90565b3361126a611251565b6001600160a01b0316146112905760405162461bcd60e51b8152600401610453906137bc565b600255565b600061041a8484846127ba565b606061041d7f000000000000000000000000000000000000000000000000000000000000000084846123bd565b6000808360c00151428110156112f75760405162461bcd60e51b815260040161045390613828565b60065460ff1615611321573330146113215760405162461bcd60e51b8152600401610453906138bc565b8460a001516001600160a01b0316611337611e2e565b6001600160a01b03161461135d5760405162461bcd60e51b81526004016104539061385f565b60006113927f0000000000000000000000000000000000000000000000000000000000000000876000015188602001516120ab565b9050806001600160a01b031663d505accf6113ab611e2e565b60408981015160c08b01518a5160208c01518c850151945160e088901b6001600160e01b03191681526001600160a01b0390961660048701523060248701526044860193909352606485019190915260ff16608484015260a483015260c482015260e401600060405180830381600087803b15801561142957600080fd5b505af115801561143d573d6000803e3d6000fd5b50505050806001600160a01b03166323b872dd611458611e2e565b6040808a015190516001600160e01b031960e085901b1681526001600160a01b03928316600482015291851660248301526044820152606401602060405180830381600087803b1580156114ab57600080fd5b505af11580156114bf573d6000803e3d6000fd5b505050506040513d601f19601f820116820180604052508101906114e391906131a3565b50600080826001600160a01b03166389afcb446114fe611e2e565b6040516001600160e01b031960e084901b1681526001600160a01b0390911660048201526024016040805180830381600087803b15801561153e57600080fd5b505af1158015611552573d6000803e3d6000fd5b505050506040513d601f19601f8201168201806040525081019061157691906135c3565b91509150600061158e89600001518a60200151612849565b509050806001600160a01b031689600001516001600160a01b0316146115b55781836115b8565b82825b60608b015191985096508710156115e15760405162461bcd60e51b81526004016104539061372e565b88608001518610156116055760405162461bcd60e51b815260040161045390613775565b50505050509250929050565b3361161a611251565b6001600160a01b0316146116405760405162461bcd60e51b8152600401610453906137bc565b6006805460ff19811660ff90911615179055565b3361165d611251565b6001600160a01b0316146116835760405162461bcd60e51b8152600401610453906137bc565b6001600160a01b03919091166000908152600360205260409020805460ff1916911515919091179055565b60608160800151428110156116d55760405162461bcd60e51b815260040161045390613828565b60065460ff16156116ff573330146116ff5760405162461bcd60e51b8152600401610453906138bc565b82606001516001600160a01b0316611715611e2e565b6001600160a01b03161461173b5760405162461bcd60e51b81526004016104539061385f565b61176e7f000000000000000000000000000000000000000000000000000000000000000084600001518560400151611c44565b915082602001518260008151811061179657634e487b7160e01b600052603260045260246000fd5b60200260200101511115610f045760405162461bcd60e51b815260206004820152602860248201527f436f6e7665796f725632526f757465723a204558434553534956455f494e50556044820152671517d05353d5539560c21b6064820152608401610453565b33611806611251565b6001600160a01b03161461182c5760405162461bcd60e51b8152600401610453906137bc565b6001600160a01b0381166118915760405162461bcd60e51b815260206004820152602660248201527f4f776e61626c653a206e6577206f776e657220697320746865207a65726f206160448201526564647265737360d01b6064820152608401610453565b61189a816122a5565b50565b60008084116118f15760405162461bcd60e51b815260206004820152602c6024820152600080516020613aa483398151915260448201526b125394155517d05353d5539560a21b6064820152608401610453565b6000831180156119015750600082115b61191d5760405162461bcd60e51b8152600401610453906137f1565b600061192b856103e5612942565b905060006119398285612942565b905060006119538361194d886103e8612942565b9061294e565b905061195f81836139a0565b979650505050505050565b805160208083015160408085015160608601516001600160a01b03861660009081526005909552918420805494957fef1224019adeddaa744f5c3109d745485aa3a6c424cb8457450389e20dfc4d5c9590949391876119c883613a39565b9091555060a0880151805160209182012060c08a0151604051611a2e99989796959493019788526001600160a01b0396871660208901529490951660408701526060860192909252608085015260a084015260c083019190915260e08201526101000190565b6040516020818303038152906040528051906020012090505b919050565b6000611aed83805160209182012060408051808201825260018152603160f81b9084015280517f8b73c3c69bb8fe3d512ecc4cf759cc79239f7b179b0ffacaa9a75d522b39400f81850152808201929092527fc89efdaa54c0f20c7adf612882df0950f5a951637e0307cdcb4c672f298b8bc660608301524660808301523060a0808401919091528151808403909101815260c09092019052805191012090565b60405161190160f01b602082015260228101919091526042810183905260620160405160208183030381529060405280519060200120905092915050565b600080611b3a8786868661295a565b9050806001600160a01b0316866001600160a01b031614801561195f57506001600160a01b0386161515979650505050505050565b6000815160001415611b8357506000611a47565b506020015190565b606082611b9e57611b9b82612982565b90505b7ff624f223d0e1427abaf1ac2d9cf7c8487cad3018f0a93b5dafa867aed96165a3848483604051611bd193929190613690565b60405180910390a150505050565b600060025460015484611bf29190613988565b611bfc9190613988565b90506000670de0b6b3a7640000611c1383856139c0565b611c1d91906139a0565b600454909150611c3c906001600160a01b0387811691899116846129e8565b505050505050565b6060600282511015611c985760405162461bcd60e51b815260206004820152601f60248201527f436f6e7665796f7256324c6962726172793a20494e56414c49445f50415448006044820152606401610453565b815167ffffffffffffffff811115611cc057634e487b7160e01b600052604160045260246000fd5b604051908082528060200260200182016040528015611ce9578160200160208202803683370190505b509050828160018351611cfc91906139df565b81518110611d1a57634e487b7160e01b600052603260045260246000fd5b602002602001018181525050600060018351611d3691906139df565b90505b8015611e2657600080611da58786611d526001876139df565b81518110611d7057634e487b7160e01b600052603260045260246000fd5b6020026020010151878681518110611d9857634e487b7160e01b600052603260045260246000fd5b6020026020010151612a42565b91509150611ddb848481518110611dcc57634e487b7160e01b600052603260045260246000fd5b602002602001015183836122f5565b84611de76001866139df565b81518110611e0557634e487b7160e01b600052603260045260246000fd5b60200260200101818152505050508080611e1e90613a22565b915050611d39565b509392505050565b3360143610801590611e4857506001600160a01b03811630145b1561125e575060131936013560601c90565b60405163e6a4390560e01b81526001600160a01b0387811660048301528681166024830152600091829182917f00000000000000000000000000000000000000000000000000000000000000009091169063e6a439059060440160206040518083038186803b158015611ecc57600080fd5b505afa158015611ee0573d6000803e3d6000fd5b505050506040513d601f19601f82011682018060405250810190611f04919061314f565b6001600160a01b03161415611fb8576040516364e329cb60e11b81526001600160a01b03898116600483015288811660248301527f0000000000000000000000000000000000000000000000000000000000000000169063c9c6539690604401602060405180830381600087803b158015611f7e57600080fd5b505af1158015611f92573d6000803e3d6000fd5b505050506040513d601f19601f82011682018060405250810190611fb6919061314f565b505b600080611fe67f00000000000000000000000000000000000000000000000000000000000000008b8b612a42565b91509150816000148015611ff8575080155b156120085787935086925061209e565b60006120158984846127ba565b9050878111612049578581101561203e5760405162461bcd60e51b815260040161045390613775565b88945092508261209c565b60006120568984866127ba565b90508981111561207657634e487b7160e01b600052600160045260246000fd5b878110156120965760405162461bcd60e51b81526004016104539061372e565b94508793505b505b5050965096945050505050565b60008060006120ba8585612849565b604080516bffffffffffffffffffffffff19606085811b821660208085019190915285821b83166034850152845180850360280181526048850190955284519401939093206001600160f81b03196068840152928b901b166069820152607d8101919091527ff7b68428a2644f9a0d674330d4e4af2d7c3d2797a7f5766d3a86c223c4e12d17609d820152919350915060bd0160408051601f1981840301815291905280516020909101209695505050505050565b604080516001600160a01b0385811660248301528481166044830152606480830185905283518084039091018152608490920183526020820180516001600160e01b03166323b872dd60e01b17905291516000928392908816916121d3919061363d565b6000604051808303816000865af19150503d8060008114612210576040519150601f19603f3d011682016040523d82523d6000602084013e612215565b606091505b509150915081801561223f57508051158061223f57508080602001905181019061223f91906131a3565b611c3c5760405162461bcd60e51b815260206004820152603160248201527f5472616e7366657248656c7065723a3a7472616e7366657246726f6d3a207472604482015270185b9cd9995c919c9bdb4819985a5b1959607a1b6064820152608401610453565b600080546001600160a01b038381166001600160a01b0319831681178455604051919092169283917f8be0079c531659141344cd1fd0a4f28419497f9722a3daafe3b4186f6b6457e09190a35050565b600080841161234a5760405162461bcd60e51b815260206004820152602d6024820152600080516020613aa483398151915260448201526c13d55514155517d05353d55395609a1b6064820152608401610453565b60008311801561235a5750600082115b6123765760405162461bcd60e51b8152600401610453906137f1565b600061238e6103e86123888688612942565b90612942565b905060006123a26103e56123888689612b1b565b90506123b3600161194d83856139a0565b9695505050505050565b60606002825110156124115760405162461bcd60e51b815260206004820152601f60248201527f436f6e7665796f7256324c6962726172793a20494e56414c49445f50415448006044820152606401610453565b815167ffffffffffffffff81111561243957634e487b7160e01b600052604160045260246000fd5b604051908082528060200260200182016040528015612462578160200160208202803683370190505b509050828160008151811061248757634e487b7160e01b600052603260045260246000fd5b60200260200101818152505060005b600183516124a491906139df565b811015611e2657600080612506878685815181106124d257634e487b7160e01b600052603260045260246000fd5b6020026020010151878660016124e89190613988565b81518110611d9857634e487b7160e01b600052603260045260246000fd5b9150915061253c84848151811061252d57634e487b7160e01b600052603260045260246000fd5b6020026020010151838361189d565b84612548856001613988565b8151811061256657634e487b7160e01b600052603260045260246000fd5b6020026020010181815250505050808061257f90613a39565b915050612496565b60005b6001835161259891906139df565b8110156127b4576000808483815181106125c257634e487b7160e01b600052603260045260246000fd5b6020026020010151858460016125d89190613988565b815181106125f657634e487b7160e01b600052603260045260246000fd5b602002602001015191509150600061260e8383612849565b50905060008761261f866001613988565b8151811061263d57634e487b7160e01b600052603260045260246000fd5b60200260200101519050600080836001600160a01b0316866001600160a01b03161461266b5782600061266f565b6000835b91509150600060028a5161268391906139df565b881061268f57886126de565b6126de7f0000000000000000000000000000000000000000000000000000000000000000878c6126c08c6002613988565b81518110610fb257634e487b7160e01b600052603260045260246000fd5b905061270b7f000000000000000000000000000000000000000000000000000000000000000088886120ab565b6001600160a01b031663022c0d9f84848460006040519080825280601f01601f191660200182016040528015612748576020820181803683370190505b506040518563ffffffff1660e01b81526004016127689493929190613902565b600060405180830381600087803b15801561278257600080fd5b505af1158015612796573d6000803e3d6000fd5b505050505050505050505080806127ac90613a39565b91505061258a565b50505050565b60008084116128085760405162461bcd60e51b81526020600482015260266024820152600080516020613aa4833981519152604482015265105353d5539560d21b6064820152608401610453565b6000831180156128185750600082115b6128345760405162461bcd60e51b8152600401610453906137f1565b8261283f8584612942565b61041a91906139a0565b600080826001600160a01b0316846001600160a01b031614156128bd5760405162461bcd60e51b815260206004820152602660248201527f436f6e7665796f7256324c6962726172793a204944454e544943414c5f41444460448201526552455353455360d01b6064820152608401610453565b826001600160a01b0316846001600160a01b0316106128dd5782846128e0565b83835b90925090506001600160a01b03821661293b5760405162461bcd60e51b815260206004820152601f60248201527f436f6e7665796f7256324c6962726172793a205a45524f5f41444452455353006044820152606401610453565b9250929050565b600061041d82846139c0565b600061041d8284613988565b600080600061296b87878787612b27565b9150915061297881612c14565b5095945050505050565b60606044825110156129c8575060408051808201909152601d81527f5472616e73616374696f6e2072657665727465642073696c656e746c790000006020820152611a47565b600482019150818060200190518101906129e291906131bf565b92915050565b604080516001600160a01b0385811660248301528416604482015260648082018490528251808303909101815260849091019091526020810180516001600160e01b03166323b872dd60e01b1790526127b4908590612e17565b6000806000612a518585612849565b509050600080612a628888886120ab565b6001600160a01b0316630902f1ac6040518163ffffffff1660e01b815260040160606040518083038186803b158015612a9a57600080fd5b505afa158015612aae573d6000803e3d6000fd5b505050506040513d601f19601f82011682018060405250810190612ad29190613500565b506001600160701b031691506001600160701b03169150826001600160a01b0316876001600160a01b031614612b09578082612b0c565b81815b90999098509650505050505050565b600061041d82846139df565b6000807f7fffffffffffffffffffffffffffffff5d576e7357a4501ddfe92f46681b20a0831115612b5e5750600090506003612c0b565b8460ff16601b14158015612b7657508460ff16601c14155b15612b875750600090506004612c0b565b6040805160008082526020820180845289905260ff881692820192909252606081018690526080810185905260019060a0016020604051602081039080840390855afa158015612bdb573d6000803e3d6000fd5b5050604051601f1901519150506001600160a01b038116612c0457600060019250925050612c0b565b9150600090505b94509492505050565b6000816004811115612c3657634e487b7160e01b600052602160045260246000fd5b1415612c415761189a565b6001816004811115612c6357634e487b7160e01b600052602160045260246000fd5b1415612cb15760405162461bcd60e51b815260206004820152601860248201527f45434453413a20696e76616c6964207369676e617475726500000000000000006044820152606401610453565b6002816004811115612cd357634e487b7160e01b600052602160045260246000fd5b1415612d215760405162461bcd60e51b815260206004820152601f60248201527f45434453413a20696e76616c6964207369676e6174757265206c656e677468006044820152606401610453565b6003816004811115612d4357634e487b7160e01b600052602160045260246000fd5b1415612d9c5760405162461bcd60e51b815260206004820152602260248201527f45434453413a20696e76616c6964207369676e6174757265202773272076616c604482015261756560f01b6064820152608401610453565b6004816004811115612dbe57634e487b7160e01b600052602160045260246000fd5b141561189a5760405162461bcd60e51b815260206004820152602260248201527f45434453413a20696e76616c6964207369676e6174757265202776272076616c604482015261756560f01b6064820152608401610453565b6000612e6c826040518060400160405280602081526020017f5361666545524332303a206c6f772d6c6576656c2063616c6c206661696c6564815250856001600160a01b0316612eee9092919063ffffffff16565b805190915015612ee95780806020019051810190612e8a91906131a3565b612ee95760405162461bcd60e51b815260206004820152602a60248201527f5361666545524332303a204552433230206f7065726174696f6e20646964206e6044820152691bdd081cdd58d8d9595960b21b6064820152608401610453565b505050565b606061041a848460008585843b612f475760405162461bcd60e51b815260206004820152601d60248201527f416464726573733a2063616c6c20746f206e6f6e2d636f6e74726163740000006044820152606401610453565b600080866001600160a01b03168587604051612f63919061363d565b60006040518083038185875af1925050503d8060008114612fa0576040519150601f19603f3d011682016040523d82523d6000602084013e612fa5565b606091505b509150915061195f82828660608315612fbf57508161041d565b825115612fcf5782518084602001fd5b8160405162461bcd60e51b8152600401610453919061371b565b8035611a4781613a80565b600082601f830112613004578081fd5b8135602067ffffffffffffffff82111561302057613020613a6a565b80820261302e82820161392f565b838152828101908684018388018501891015613048578687fd5b8693505b8584101561307357803561305f81613a80565b83526001939093019291840191840161304c565b50979650505050505050565b600082601f83011261308f578081fd5b81356130a261309d82613960565b61392f565b8181528460208386010111156130b6578283fd5b816020850160208301379081016020019190915292915050565b6000606082840312156130e1578081fd5b6130eb606061392f565b9050813560ff811681146130fe57600080fd5b80825250602082013560208201526040820135604082015292915050565b80516001600160701b0381168114611a4757600080fd5b600060208284031215613144578081fd5b813561041d81613a80565b600060208284031215613160578081fd5b815161041d81613a80565b6000806040838503121561317d578081fd5b823561318881613a80565b9150602083013561319881613a95565b809150509250929050565b6000602082840312156131b4578081fd5b815161041d81613a95565b6000602082840312156131d0578081fd5b815167ffffffffffffffff8111156131e6578182fd5b8201601f810184136131f6578182fd5b805161320461309d82613960565b818152856020838501011115613218578384fd5b6132298260208301602086016139f6565b95945050505050565b6000610100808385031215613245578182fd5b61324e8161392f565b9050823561325b81613a80565b8152602083013561326b81613a80565b8060208301525060408301356040820152606083013560608201526080830135608082015260a083013560a08201526132a660c08401612fe9565b60c082015260e083013560e08201528091505092915050565b600080600080600060e086880312156132d6578081fd5b853567ffffffffffffffff808211156132ed578283fd5b9087019060e0828a031215613300578283fd5b61330a60e061392f565b61331383612fe9565b815261332160208401612fe9565b602082015260408301356040820152606083013560608201526080830135608082015260a083013582811115613355578485fd5b6133618b82860161307f565b60a08301525060c083013560c0820152809750506020880135915080821115613388578283fd5b506133958882890161307f565b94505060408601359250606086013591506133b387608088016130d0565b90509295509295909350565b6000808284036101408112156133d3578283fd5b60e08112156133e0578283fd5b506133eb60e061392f565b83356133f681613a80565b8152602084013561340681613a80565b8060208301525060408401356040820152606084013560608201526080840135608082015261343760a08501612fe9565b60a082015260c0848101359082015291506134558460e085016130d0565b90509250929050565b60006020828403121561346f578081fd5b813567ffffffffffffffff80821115613486578283fd5b9083019060a08286031215613499578283fd5b6134a360a061392f565b82358152602083013560208201526040830135828111156134c2578485fd5b6134ce87828601612ff4565b604083015250606083013591506134e482613a80565b8160608201526080830135608082015280935050505092915050565b600080600060608486031215613514578081fd5b61351d8461311c565b925061352b6020850161311c565b9150604084015163ffffffff81168114613543578182fd5b809150509250925092565b60006020828403121561355f578081fd5b5035919050565b600060208284031215613577578081fd5b5051919050565b60008060408385031215613590578182fd5b82359150602083013567ffffffffffffffff8111156135ad578182fd5b6135b985828601612ff4565b9150509250929050565b600080604083850312156135d5578182fd5b505080516020909101519092909150565b6000806000606084860312156135fa578081fd5b505081359360208301359350604090920135919050565b600081518084526136298160208601602086016139f6565b601f01601f19169290920160200192915050565b6000825161364f8184602087016139f6565b9190910192915050565b6000835161366b8184602088016139f6565b60609390931b6bffffffffffffffffffffffff19169190920190815260140192915050565b6001600160a01b0384168152821515602082015260606040820181905260009061322990830184613611565b6020808252825182820181905260009190848201906040850190845b818110156136f4578351835292840192918401916001016136d8565b50909695505050505050565b600083151582526040602083015261041a6040830184613611565b60006020825261041d6020830184613611565b60208082526027908201527f436f6e7665796f725632526f757465723a20494e53554646494349454e545f4160408201526617d05353d5539560ca1b606082015260800190565b60208082526027908201527f436f6e7665796f725632526f757465723a20494e53554646494349454e545f4260408201526617d05353d5539560ca1b606082015260800190565b6020808252818101527f4f776e61626c653a2063616c6c6572206973206e6f7420746865206f776e6572604082015260600190565b6020808252602990820152600080516020613aa48339815191526040820152684c495155494449545960b81b606082015260800190565b60208082526019908201527f436f6e7665796f725632526f757465723a204558504952454400000000000000604082015260600190565b60208082526037908201527f436f6e7665796f725632526f757465723a2053656e64657220646f6573206e6f60408201527f74206d6174636820746f6b656e20726563697069656e74000000000000000000606082015260800190565b60208082526026908201527f436f6e7665796f725632526f757465723a20464f5242494444454e21204d657460408201526561206f6e6c7960d01b606082015260800190565b600085825284602083015260018060a01b0384166040830152608060608301526123b36080830184613611565b604051601f8201601f1916810167ffffffffffffffff8111828210171561395857613958613a6a565b604052919050565b600067ffffffffffffffff82111561397a5761397a613a6a565b50601f01601f191660200190565b6000821982111561399b5761399b613a54565b500190565b6000826139bb57634e487b7160e01b81526012600452602481fd5b500490565b60008160001904831182151516156139da576139da613a54565b500290565b6000828210156139f1576139f1613a54565b500390565b60005b83811015613a115781810151838201526020016139f9565b838111156127b45750506000910152565b600081613a3157613a31613a54565b506000190190565b6000600019821415613a4d57613a4d613a54565b5060010190565b634e487b7160e01b600052601160045260246000fd5b634e487b7160e01b600052604160045260246000fd5b6001600160a01b038116811461189a57600080fd5b801515811461189a57600080fdfe436f6e7665796f7256324c6962726172793a20494e53554646494349454e545fa2646970667358221220e6687ecddf997699132f7ef2e94d1b84cd1b0067ab476e867fa835b2055d602e64736f6c63430008020033",
  "linkReferences": {},
  "deployedLinkReferences": {}
}