{
  "_format": "hh-sol-artifact-1",
  "contractName": "ConveyorV2Factory",
  "sourceName": "contracts/ConveyorV2Factory.sol",
  "abi": [
    {
      "inputs": [
        {
          "internalType": "address",
          "name": "_feeToSetter",
          "type": "address"
        }
      ],
      "stateMutability": "nonpayable",
      "type": "constructor"
    },
    {
      "anonymous": false,
      "inputs": [
        {
          "indexed": true,
          "internalType": "address",
          "name": "token0",
          "type": "address"
        },
        {
          "indexed": true,
          "internalType": "address",
          "name": "token1",
          "type": "address"
        },
        {
          "indexed": false,
          "internalType": "address",
          "name": "pair",
          "type": "address"
        },
        {
          "indexed": false,
          "internalType": "uint256",
          "name": "",
          "type": "uint256"
        }
      ],
      "name": "PairCreated",
      "type": "event"
    },
    {
      "inputs": [
        {
          "internalType": "uint256",
          "name": "",
          "type": "uint256"
        }
      ],
      "name": "allPairs",
      "outputs": [
        {
          "internalType": "address",
          "name": "",
          "type": "address"
        }
      ],
      "stateMutability": "view",
      "type": "function"
    },
    {
      "inputs": [],
      "name": "allPairsLength",
      "outputs": [
        {
          "internalType": "uint256",
          "name": "",
          "type": "uint256"
        }
      ],
      "stateMutability": "view",
      "type": "function"
    },
    {
      "inputs": [
        {
          "internalType": "address",
          "name": "tokenA",
          "type": "address"
        },
        {
          "internalType": "address",
          "name": "tokenB",
          "type": "address"
        }
      ],
      "name": "createPair",
      "outputs": [
        {
          "internalType": "address",
          "name": "pair",
          "type": "address"
        }
      ],
      "stateMutability": "nonpayable",
      "type": "function"
    },
    {
      "inputs": [],
      "name": "feeTo",
      "outputs": [
        {
          "internalType": "address",
          "name": "",
          "type": "address"
        }
      ],
      "stateMutability": "view",
      "type": "function"
    },
    {
      "inputs": [],
      "name": "feeToSetter",
      "outputs": [
        {
          "internalType": "address",
          "name": "",
          "type": "address"
        }
      ],
      "stateMutability": "view",
      "type": "function"
    },
    {
      "inputs": [
        {
          "internalType": "address",
          "name": "",
          "type": "address"
        },
        {
          "internalType": "address",
          "name": "",
          "type": "address"
        }
      ],
      "name": "getPair",
      "outputs": [
        {
          "internalType": "address",
          "name": "",
          "type": "address"
        }
      ],
      "stateMutability": "view",
      "type": "function"
    },
    {
      "inputs": [],
      "name": "router",
      "outputs": [
        {
          "internalType": "address",
          "name": "",
          "type": "address"
        }
      ],
      "stateMutability": "view",
      "type": "function"
    },
    {
      "inputs": [
        {
          "internalType": "address",
          "name": "_feeTo",
          "type": "address"
        }
      ],
      "name": "setFeeTo",
      "outputs": [],
      "stateMutability": "nonpayable",
      "type": "function"
    },
    {
      "inputs": [
        {
          "internalType": "address",
          "name": "_feeToSetter",
          "type": "address"
        }
      ],
      "name": "setFeeToSetter",
      "outputs": [],
      "stateMutability": "nonpayable",
      "type": "function"
    },
    {
      "inputs": [
        {
          "internalType": "address",
          "name": "_router",
          "type": "address"
        }
      ],
      "name": "setRouter",
      "outputs": [],
      "stateMutability": "nonpayable",
      "type": "function"
    }
  ],
  "bytecode": "0x608060405234801561001057600080fd5b50604051620057c0380380620057c083398181016040528101906100349190610090565b80600160006101000a81548173ffffffffffffffffffffffffffffffffffffffff021916908373ffffffffffffffffffffffffffffffffffffffff16021790555050610102565b60008151905061008a816100eb565b92915050565b6000602082840312156100a257600080fd5b60006100b08482850161007b565b91505092915050565b60006100c4826100cb565b9050919050565b600073ffffffffffffffffffffffffffffffffffffffff82169050919050565b6100f4816100b9565b81146100ff57600080fd5b50565b6156ae80620001126000396000f3fe60806040523480156200001157600080fd5b5060043610620000ac5760003560e01c8063c0d78655116200006f578063c0d78655146200016d578063c9c65396146200018d578063e6a4390514620001c3578063f46901ed14620001f9578063f887ea40146200021957620000ac565b8063017e7e5814620000b1578063094b741514620000d35780631e3dd18b14620000f5578063574f2ba3146200012b578063a2e74af6146200014d575b600080fd5b620000bb6200023b565b604051620000ca919062000cfe565b60405180910390f35b620000dd6200025f565b604051620000ec919062000cfe565b60405180910390f35b6200011360048036038101906200010d919062000bc9565b62000285565b60405162000122919062000cfe565b60405180910390f35b62000135620002c5565b60405162000144919062000dfd565b60405180910390f35b6200016b600480360381019062000165919062000b5c565b620002d2565b005b6200018b600480360381019062000185919062000b5c565b620003a9565b005b620001ab6004803603810190620001a5919062000b88565b62000480565b604051620001ba919062000cfe565b60405180910390f35b620001e16004803603810190620001db919062000b88565b620009e2565b604051620001f0919062000cfe565b60405180910390f35b62000217600480360381019062000211919062000b5c565b62000a24565b005b6200022362000afa565b60405162000232919062000cfe565b60405180910390f35b60008054906101000a900473ffffffffffffffffffffffffffffffffffffffff1681565b600160009054906101000a900473ffffffffffffffffffffffffffffffffffffffff1681565b600481815481106200029657600080fd5b906000526020600020016000915054906101000a900473ffffffffffffffffffffffffffffffffffffffff1681565b6000600480549050905090565b600160009054906101000a900473ffffffffffffffffffffffffffffffffffffffff1673ffffffffffffffffffffffffffffffffffffffff163373ffffffffffffffffffffffffffffffffffffffff161462000365576040517f08c379a00000000000000000000000000000000000000000000000000000000081526004016200035c9062000db9565b60405180910390fd5b80600160006101000a81548173ffffffffffffffffffffffffffffffffffffffff021916908373ffffffffffffffffffffffffffffffffffffffff16021790555050565b600160009054906101000a900473ffffffffffffffffffffffffffffffffffffffff1673ffffffffffffffffffffffffffffffffffffffff163373ffffffffffffffffffffffffffffffffffffffff16146200043c576040517f08c379a0000000000000000000000000000000000000000000000000000000008152600401620004339062000db9565b60405180910390fd5b80600260006101000a81548173ffffffffffffffffffffffffffffffffffffffff021916908373ffffffffffffffffffffffffffffffffffffffff16021790555050565b60008173ffffffffffffffffffffffffffffffffffffffff168373ffffffffffffffffffffffffffffffffffffffff161415620004f4576040517f08c379a0000000000000000000000000000000000000000000000000000000008152600401620004eb9062000d97565b60405180910390fd5b6000808373ffffffffffffffffffffffffffffffffffffffff168573ffffffffffffffffffffffffffffffffffffffff16106200053357838562000536565b84845b91509150600073ffffffffffffffffffffffffffffffffffffffff168273ffffffffffffffffffffffffffffffffffffffff161415620005ad576040517f08c379a0000000000000000000000000000000000000000000000000000000008152600401620005a49062000d75565b60405180910390fd5b600073ffffffffffffffffffffffffffffffffffffffff16600360008473ffffffffffffffffffffffffffffffffffffffff1673ffffffffffffffffffffffffffffffffffffffff16815260200190815260200160002060008373ffffffffffffffffffffffffffffffffffffffff1673ffffffffffffffffffffffffffffffffffffffff16815260200190815260200160002060009054906101000a900473ffffffffffffffffffffffffffffffffffffffff1673ffffffffffffffffffffffffffffffffffffffff1614620006bb576040517f08c379a0000000000000000000000000000000000000000000000000000000008152600401620006b29062000ddb565b60405180910390fd5b600060405180602001620006cf9062000b20565b6020820181038252601f19601f82011660405250905060008383604051602001620006fc92919062000cce565b604051602081830303815290604052805190602001209050808251602084016000f594508473ffffffffffffffffffffffffffffffffffffffff1663485cc95585856040518363ffffffff1660e01b81526004016200075d92919062000d1b565b600060405180830381600087803b1580156200077857600080fd5b505af11580156200078d573d6000803e3d6000fd5b5050505084600360008673ffffffffffffffffffffffffffffffffffffffff1673ffffffffffffffffffffffffffffffffffffffff16815260200190815260200160002060008573ffffffffffffffffffffffffffffffffffffffff1673ffffffffffffffffffffffffffffffffffffffff16815260200190815260200160002060006101000a81548173ffffffffffffffffffffffffffffffffffffffff021916908373ffffffffffffffffffffffffffffffffffffffff16021790555084600360008573ffffffffffffffffffffffffffffffffffffffff1673ffffffffffffffffffffffffffffffffffffffff16815260200190815260200160002060008673ffffffffffffffffffffffffffffffffffffffff1673ffffffffffffffffffffffffffffffffffffffff16815260200190815260200160002060006101000a81548173ffffffffffffffffffffffffffffffffffffffff021916908373ffffffffffffffffffffffffffffffffffffffff1602179055506004859080600181540180825580915050600190039060005260206000200160009091909190916101000a81548173ffffffffffffffffffffffffffffffffffffffff021916908373ffffffffffffffffffffffffffffffffffffffff1602179055508273ffffffffffffffffffffffffffffffffffffffff168473ffffffffffffffffffffffffffffffffffffffff167f0d3648bd0f6ba80134a33ba9275ac585d9d315f0ad8355cddefde31afa28d0e987600480549050604051620009d092919062000d48565b60405180910390a35050505092915050565b60036020528160005260406000206020528060005260406000206000915091509054906101000a900473ffffffffffffffffffffffffffffffffffffffff1681565b600160009054906101000a900473ffffffffffffffffffffffffffffffffffffffff1673ffffffffffffffffffffffffffffffffffffffff163373ffffffffffffffffffffffffffffffffffffffff161462000ab7576040517f08c379a000000000000000000000000000000000000000000000000000000000815260040162000aae9062000db9565b60405180910390fd5b806000806101000a81548173ffffffffffffffffffffffffffffffffffffffff021916908373ffffffffffffffffffffffffffffffffffffffff16021790555050565b600260009054906101000a900473ffffffffffffffffffffffffffffffffffffffff1681565b6147028062000f7783390190565b60008135905062000b3f8162000f42565b92915050565b60008135905062000b568162000f5c565b92915050565b60006020828403121562000b6f57600080fd5b600062000b7f8482850162000b2e565b91505092915050565b6000806040838503121562000b9c57600080fd5b600062000bac8582860162000b2e565b925050602062000bbf8582860162000b2e565b9150509250929050565b60006020828403121562000bdc57600080fd5b600062000bec8482850162000b45565b91505092915050565b62000c008162000e2b565b82525050565b62000c1b62000c158262000e2b565b62000e69565b82525050565b600062000c3060188362000e1a565b915062000c3d8262000e9e565b602082019050919050565b600062000c57601f8362000e1a565b915062000c648262000ec7565b602082019050919050565b600062000c7e60158362000e1a565b915062000c8b8262000ef0565b602082019050919050565b600062000ca560178362000e1a565b915062000cb28262000f19565b602082019050919050565b62000cc88162000e5f565b82525050565b600062000cdc828562000c06565b60148201915062000cee828462000c06565b6014820191508190509392505050565b600060208201905062000d15600083018462000bf5565b92915050565b600060408201905062000d32600083018562000bf5565b62000d41602083018462000bf5565b9392505050565b600060408201905062000d5f600083018562000bf5565b62000d6e602083018462000cbd565b9392505050565b6000602082019050818103600083015262000d908162000c21565b9050919050565b6000602082019050818103600083015262000db28162000c48565b9050919050565b6000602082019050818103600083015262000dd48162000c6f565b9050919050565b6000602082019050818103600083015262000df68162000c96565b9050919050565b600060208201905062000e14600083018462000cbd565b92915050565b600082825260208201905092915050565b600062000e388262000e3f565b9050919050565b600073ffffffffffffffffffffffffffffffffffffffff82169050919050565b6000819050919050565b600062000e768262000e7d565b9050919050565b600062000e8a8262000e91565b9050919050565b60008160601b9050919050565b7f436f6e7665796f7256323a205a45524f5f414444524553530000000000000000600082015250565b7f436f6e7665796f7256323a204944454e544943414c5f41444452455353455300600082015250565b7f436f6e7665796f7256323a20464f5242494444454e0000000000000000000000600082015250565b7f436f6e7665796f7256323a20504149525f455849535453000000000000000000600082015250565b62000f4d8162000e2b565b811462000f5957600080fd5b50565b62000f678162000e5f565b811462000f7357600080fd5b5056fe60806040526001600c553480156200001657600080fd5b5060004690507f8b73c3c69bb8fe3d512ecc4cf759cc79239f7b179b0ffacaa9a75d522b39400f6040518060400160405280600b81526020017f436f6e7665796f72205632000000000000000000000000000000000000000000815250805190602001206040518060400160405280600181526020017f3100000000000000000000000000000000000000000000000000000000000000815250805190602001208330604051602001620000cf95949392919062000166565b604051602081830303815290604052805190602001206003819055505033600560006101000a81548173ffffffffffffffffffffffffffffffffffffffff021916908373ffffffffffffffffffffffffffffffffffffffff1602179055506200020b565b6200013e81620001c3565b82525050565b6200014f81620001d7565b82525050565b620001608162000201565b82525050565b600060a0820190506200017d600083018862000144565b6200018c602083018762000144565b6200019b604083018662000144565b620001aa606083018562000155565b620001b9608083018462000133565b9695505050505050565b6000620001d082620001e1565b9050919050565b6000819050919050565b600073ffffffffffffffffffffffffffffffffffffffff82169050919050565b6000819050919050565b6144e7806200021b6000396000f3fe608060405234801561001057600080fd5b50600436106101a95760003560e01c80636a627842116100f9578063ba9a7a5611610097578063d21220a711610071578063d21220a7146104db578063d505accf146104f9578063dd62ed3e14610515578063fff6cae914610545576101a9565b8063ba9a7a5614610483578063bc25cf77146104a1578063c45a0155146104bd576101a9565b80637ecebe00116100d35780637ecebe00146103d457806389afcb441461040457806395d89b4114610435578063a9059cbb14610453576101a9565b80636a6278421461035657806370a08231146103865780637464fc3d146103b6576101a9565b806323b872dd116101665780633644e515116101405780633644e515146102e0578063485cc955146102fe5780635909c0d51461031a5780635a3d549314610338576101a9565b806323b872dd1461027457806330adf81f146102a4578063313ce567146102c2576101a9565b8063022c0d9f146101ae57806306fdde03146101ca5780630902f1ac146101e8578063095ea7b3146102085780630dfe16811461023857806318160ddd14610256575b600080fd5b6101c860048036038101906101c391906134cf565b61054f565b005b6101d2610da1565b6040516101df9190613a2f565b60405180910390f35b6101f0610dda565b6040516101ff93929190613c3a565b60405180910390f35b610222600480360381019061021d9190613441565b610e37565b60405161022f9190613953565b60405180910390f35b610240610e4e565b60405161024d91906138c1565b60405180910390f35b61025e610e74565b60405161026b9190613c71565b60405180910390f35b61028e60048036038101906102899190613354565b610e7a565b60405161029b9190613953565b60405180910390f35b6102ac611045565b6040516102b9919061396e565b60405180910390f35b6102ca61106c565b6040516102d79190613cfa565b60405180910390f35b6102e8611071565b6040516102f5919061396e565b60405180910390f35b61031860048036038101906103139190613318565b611077565b005b61032261118d565b60405161032f9190613c71565b60405180910390f35b610340611193565b60405161034d9190613c71565b60405180910390f35b610370600480360381019061036b91906132c6565b611199565b60405161037d9190613c71565b60405180910390f35b6103a0600480360381019061039b91906132c6565b611783565b6040516103ad9190613c71565b60405180910390f35b6103be61179b565b6040516103cb9190613c71565b60405180910390f35b6103ee60048036038101906103e991906132c6565b6117a1565b6040516103fb9190613c71565b60405180910390f35b61041e600480360381019061041991906132c6565b6117b9565b60405161042c929190613c8c565b60405180910390f35b61043d611e81565b60405161044a9190613a2f565b60405180910390f35b61046d60048036038101906104689190613441565b611eba565b60405161047a9190613953565b60405180910390f35b61048b611ed1565b6040516104989190613c71565b60405180910390f35b6104bb60048036038101906104b691906132c6565b611ed7565b005b6104c5612121565b6040516104d291906138c1565b60405180910390f35b6104e3612147565b6040516104f091906138c1565b60405180910390f35b610513600480360381019061050e91906133a3565b61216d565b005b61052f600480360381019061052a9190613318565b612395565b60405161053c9190613c71565b60405180910390f35b61054d6123ba565b005b6001600c5414610594576040517f08c379a000000000000000000000000000000000000000000000000000000000815260040161058b90613b71565b60405180910390fd5b6000600c81905550600560009054906101000a900473ffffffffffffffffffffffffffffffffffffffff1673ffffffffffffffffffffffffffffffffffffffff1663f887ea406040518163ffffffff1660e01b815260040160206040518083038186803b15801561060457600080fd5b505afa158015610618573d6000803e3d6000fd5b505050506040513d601f19601f8201168201806040525081019061063c91906132ef565b73ffffffffffffffffffffffffffffffffffffffff163373ffffffffffffffffffffffffffffffffffffffff16148061073f5750600560009054906101000a900473ffffffffffffffffffffffffffffffffffffffff1673ffffffffffffffffffffffffffffffffffffffff1663017e7e586040518163ffffffff1660e01b815260040160206040518083038186803b1580156106d857600080fd5b505afa1580156106ec573d6000803e3d6000fd5b505050506040513d601f19601f8201168201806040525081019061071091906132ef565b73ffffffffffffffffffffffffffffffffffffffff163373ffffffffffffffffffffffffffffffffffffffff16145b61077e576040517f08c379a000000000000000000000000000000000000000000000000000000000815260040161077590613ab1565b60405180910390fd5b600085118061078d5750600084115b6107cc576040517f08c379a00000000000000000000000000000000000000000000000000000000081526004016107c390613bf1565b60405180910390fd5b6000806107d7610dda565b5091509150816dffffffffffffffffffffffffffff168710801561080a5750806dffffffffffffffffffffffffffff1686105b610849576040517f08c379a000000000000000000000000000000000000000000000000000000000815260040161084090613b31565b60405180910390fd5b6000806000600660009054906101000a900473ffffffffffffffffffffffffffffffffffffffff1690506000600760009054906101000a900473ffffffffffffffffffffffffffffffffffffffff1690508173ffffffffffffffffffffffffffffffffffffffff168973ffffffffffffffffffffffffffffffffffffffff161415801561090257508073ffffffffffffffffffffffffffffffffffffffff168973ffffffffffffffffffffffffffffffffffffffff1614155b610941576040517f08c379a000000000000000000000000000000000000000000000000000000000815260040161093890613a71565b60405180910390fd5b60008b111561095657610955828a8d6125a9565b5b60008a111561096b5761096a818a8c6125a9565b5b60008888905011156109eb578873ffffffffffffffffffffffffffffffffffffffff1663e0d4e83d338d8d8c8c6040518663ffffffff1660e01b81526004016109b8959493929190613905565b600060405180830381600087803b1580156109d257600080fd5b505af11580156109e6573d6000803e3d6000fd5b505050505b8173ffffffffffffffffffffffffffffffffffffffff166370a08231306040518263ffffffff1660e01b8152600401610a2491906138c1565b60206040518083038186803b158015610a3c57600080fd5b505afa158015610a50573d6000803e3d6000fd5b505050506040513d601f19601f82011682018060405250810190610a7491906134a6565b93508073ffffffffffffffffffffffffffffffffffffffff166370a08231306040518263ffffffff1660e01b8152600401610aaf91906138c1565b60206040518083038186803b158015610ac757600080fd5b505afa158015610adb573d6000803e3d6000fd5b505050506040513d601f19601f82011682018060405250810190610aff91906134a6565b92505050600089856dffffffffffffffffffffffffffff16610b219190613ecb565b8311610b2e576000610b56565b89856dffffffffffffffffffffffffffff16610b4a9190613ecb565b83610b559190613ecb565b5b9050600089856dffffffffffffffffffffffffffff16610b769190613ecb565b8311610b83576000610bab565b89856dffffffffffffffffffffffffffff16610b9f9190613ecb565b83610baa9190613ecb565b5b90506000821180610bbc5750600081115b610bfb576040517f08c379a0000000000000000000000000000000000000000000000000000000008152600401610bf290613bd1565b60405180910390fd5b6000610c37610c1460038561273390919063ffffffff16565b610c296103e88861273390919063ffffffff16565b61274990919063ffffffff16565b90506000610c75610c5260038561273390919063ffffffff16565b610c676103e88861273390919063ffffffff16565b61274990919063ffffffff16565b9050610cbf620f4240610cb1896dffffffffffffffffffffffffffff168b6dffffffffffffffffffffffffffff1661273390919063ffffffff16565b61273390919063ffffffff16565b610cd2828461273390919063ffffffff16565b1015610d13576040517f08c379a0000000000000000000000000000000000000000000000000000000008152600401610d0a90613a51565b60405180910390fd5b5050610d218484888861275f565b8873ffffffffffffffffffffffffffffffffffffffff163373ffffffffffffffffffffffffffffffffffffffff167fd78ad95fa46c994b6551d0da85fc275fe613ce37657fb8d5e3d130840159d82284848f8f604051610d849493929190613cb5565b60405180910390a35050505050506001600c819055505050505050565b6040518060400160405280600b81526020017f436f6e7665796f7220563200000000000000000000000000000000000000000081525081565b6000806000600860009054906101000a90046dffffffffffffffffffffffffffff1692506008600e9054906101000a90046dffffffffffffffffffffffffffff1691506008601c9054906101000a900463ffffffff169050909192565b6000610e44338484612a53565b6001905092915050565b600660009054906101000a900473ffffffffffffffffffffffffffffffffffffffff1681565b60005481565b60007fffffffffffffffffffffffffffffffffffffffffffffffffffffffffffffffff600260008673ffffffffffffffffffffffffffffffffffffffff1673ffffffffffffffffffffffffffffffffffffffff16815260200190815260200160002060003373ffffffffffffffffffffffffffffffffffffffff1673ffffffffffffffffffffffffffffffffffffffff168152602001908152602001600020541461102f57610fae82600260008773ffffffffffffffffffffffffffffffffffffffff1673ffffffffffffffffffffffffffffffffffffffff16815260200190815260200160002060003373ffffffffffffffffffffffffffffffffffffffff1673ffffffffffffffffffffffffffffffffffffffff1681526020019081526020016000205461274990919063ffffffff16565b600260008673ffffffffffffffffffffffffffffffffffffffff1673ffffffffffffffffffffffffffffffffffffffff16815260200190815260200160002060003373ffffffffffffffffffffffffffffffffffffffff1673ffffffffffffffffffffffffffffffffffffffff168152602001908152602001600020819055505b61103a848484612b3e565b600190509392505050565b7f6e71edae12b1b97f4d1f60370fef10105fa2faae0126114a169c64845d6126c960001b81565b601281565b60035481565b600560009054906101000a900473ffffffffffffffffffffffffffffffffffffffff1673ffffffffffffffffffffffffffffffffffffffff163373ffffffffffffffffffffffffffffffffffffffff1614611107576040517f08c379a00000000000000000000000000000000000000000000000000000000081526004016110fe90613ad1565b60405180910390fd5b81600660006101000a81548173ffffffffffffffffffffffffffffffffffffffff021916908373ffffffffffffffffffffffffffffffffffffffff16021790555080600760006101000a81548173ffffffffffffffffffffffffffffffffffffffff021916908373ffffffffffffffffffffffffffffffffffffffff1602179055505050565b60095481565b600a5481565b60006001600c54146111e0576040517f08c379a00000000000000000000000000000000000000000000000000000000081526004016111d790613b71565b60405180910390fd5b6000600c81905550600560009054906101000a900473ffffffffffffffffffffffffffffffffffffffff1673ffffffffffffffffffffffffffffffffffffffff1663f887ea406040518163ffffffff1660e01b815260040160206040518083038186803b15801561125057600080fd5b505afa158015611264573d6000803e3d6000fd5b505050506040513d601f19601f8201168201806040525081019061128891906132ef565b73ffffffffffffffffffffffffffffffffffffffff163373ffffffffffffffffffffffffffffffffffffffff16148061138b5750600560009054906101000a900473ffffffffffffffffffffffffffffffffffffffff1673ffffffffffffffffffffffffffffffffffffffff1663017e7e586040518163ffffffff1660e01b815260040160206040518083038186803b15801561132457600080fd5b505afa158015611338573d6000803e3d6000fd5b505050506040513d601f19601f8201168201806040525081019061135c91906132ef565b73ffffffffffffffffffffffffffffffffffffffff163373ffffffffffffffffffffffffffffffffffffffff16145b6113ca576040517f08c379a00000000000000000000000000000000000000000000000000000000081526004016113c190613ab1565b60405180910390fd5b6000806113d5610dda565b50915091506000600660009054906101000a900473ffffffffffffffffffffffffffffffffffffffff1673ffffffffffffffffffffffffffffffffffffffff166370a08231306040518263ffffffff1660e01b815260040161143791906138c1565b60206040518083038186803b15801561144f57600080fd5b505afa158015611463573d6000803e3d6000fd5b505050506040513d601f19601f8201168201806040525081019061148791906134a6565b90506000600760009054906101000a900473ffffffffffffffffffffffffffffffffffffffff1673ffffffffffffffffffffffffffffffffffffffff166370a08231306040518263ffffffff1660e01b81526004016114e691906138c1565b60206040518083038186803b1580156114fe57600080fd5b505afa158015611512573d6000803e3d6000fd5b505050506040513d601f19601f8201168201806040525081019061153691906134a6565b9050600061155d856dffffffffffffffffffffffffffff168461274990919063ffffffff16565b90506000611584856dffffffffffffffffffffffffffff168461274990919063ffffffff16565b905060006115928787612cd2565b905060008054905060008114156115e6576115d26103e86115c46115bf868861273390919063ffffffff16565b612eb2565b61274990919063ffffffff16565b98506115e160006103e8612f2c565b61164d565b61164a886dffffffffffffffffffffffffffff1661160d838761273390919063ffffffff16565b6116179190613dea565b886dffffffffffffffffffffffffffff1661163b848761273390919063ffffffff16565b6116459190613dea565b613046565b98505b60008911611690576040517f08c379a000000000000000000000000000000000000000000000000000000000815260040161168790613af1565b60405180910390fd5b61169a8a8a612f2c565b6116a686868a8a61275f565b811561171e576117176008600e9054906101000a90046dffffffffffffffffffffffffffff166dffffffffffffffffffffffffffff16600860009054906101000a90046dffffffffffffffffffffffffffff166dffffffffffffffffffffffffffff1661273390919063ffffffff16565b600b819055505b3373ffffffffffffffffffffffffffffffffffffffff167f4c209b5fc8ad50758f13e2e1088ba56a560dff690a1c6fef26394f4c03821c4f8585604051611766929190613c8c565b60405180910390a250505050505050506001600c81905550919050565b60016020528060005260406000206000915090505481565b600b5481565b60046020528060005260406000206000915090505481565b6000806001600c5414611801576040517f08c379a00000000000000000000000000000000000000000000000000000000081526004016117f890613b71565b60405180910390fd5b6000600c81905550600560009054906101000a900473ffffffffffffffffffffffffffffffffffffffff1673ffffffffffffffffffffffffffffffffffffffff1663f887ea406040518163ffffffff1660e01b815260040160206040518083038186803b15801561187157600080fd5b505afa158015611885573d6000803e3d6000fd5b505050506040513d601f19601f820116820180604052508101906118a991906132ef565b73ffffffffffffffffffffffffffffffffffffffff163373ffffffffffffffffffffffffffffffffffffffff1614806119ac5750600560009054906101000a900473ffffffffffffffffffffffffffffffffffffffff1673ffffffffffffffffffffffffffffffffffffffff1663017e7e586040518163ffffffff1660e01b815260040160206040518083038186803b15801561194557600080fd5b505afa158015611959573d6000803e3d6000fd5b505050506040513d601f19601f8201168201806040525081019061197d91906132ef565b73ffffffffffffffffffffffffffffffffffffffff163373ffffffffffffffffffffffffffffffffffffffff16145b6119eb576040517f08c379a00000000000000000000000000000000000000000000000000000000081526004016119e290613ab1565b60405180910390fd5b6000806119f6610dda565b50915091506000600660009054906101000a900473ffffffffffffffffffffffffffffffffffffffff1690506000600760009054906101000a900473ffffffffffffffffffffffffffffffffffffffff16905060008273ffffffffffffffffffffffffffffffffffffffff166370a08231306040518263ffffffff1660e01b8152600401611a8491906138c1565b60206040518083038186803b158015611a9c57600080fd5b505afa158015611ab0573d6000803e3d6000fd5b505050506040513d601f19601f82011682018060405250810190611ad491906134a6565b905060008273ffffffffffffffffffffffffffffffffffffffff166370a08231306040518263ffffffff1660e01b8152600401611b1191906138c1565b60206040518083038186803b158015611b2957600080fd5b505afa158015611b3d573d6000803e3d6000fd5b505050506040513d601f19601f82011682018060405250810190611b6191906134a6565b90506000600160003073ffffffffffffffffffffffffffffffffffffffff1673ffffffffffffffffffffffffffffffffffffffff1681526020019081526020016000205490506000611bb38888612cd2565b905060008054905080611bcf868561273390919063ffffffff16565b611bd99190613dea565b9a5080611bef858561273390919063ffffffff16565b611bf99190613dea565b995060008b118015611c0b575060008a115b611c4a576040517f08c379a0000000000000000000000000000000000000000000000000000000008152600401611c4190613a91565b60405180910390fd5b611c54308461305f565b611c5f878d8d6125a9565b611c6a868d8c6125a9565b8673ffffffffffffffffffffffffffffffffffffffff166370a08231306040518263ffffffff1660e01b8152600401611ca391906138c1565b60206040518083038186803b158015611cbb57600080fd5b505afa158015611ccf573d6000803e3d6000fd5b505050506040513d601f19601f82011682018060405250810190611cf391906134a6565b94508573ffffffffffffffffffffffffffffffffffffffff166370a08231306040518263ffffffff1660e01b8152600401611d2e91906138c1565b60206040518083038186803b158015611d4657600080fd5b505afa158015611d5a573d6000803e3d6000fd5b505050506040513d601f19601f82011682018060405250810190611d7e91906134a6565b9350611d8c85858b8b61275f565b8115611e0457611dfd6008600e9054906101000a90046dffffffffffffffffffffffffffff166dffffffffffffffffffffffffffff16600860009054906101000a90046dffffffffffffffffffffffffffff166dffffffffffffffffffffffffffff1661273390919063ffffffff16565b600b819055505b8b73ffffffffffffffffffffffffffffffffffffffff163373ffffffffffffffffffffffffffffffffffffffff167fdccd412f0b1252819cb1fd330b93224ca42612892bb3f4f789976e6d819364968d8d604051611e63929190613c8c565b60405180910390a35050505050505050506001600c81905550915091565b6040518060400160405280600681526020017f434f4e2d5632000000000000000000000000000000000000000000000000000081525081565b6000611ec7338484612b3e565b6001905092915050565b6103e881565b6001600c5414611f1c576040517f08c379a0000000000000000000000000000000000000000000000000000000008152600401611f1390613b71565b60405180910390fd5b6000600c819055506000600660009054906101000a900473ffffffffffffffffffffffffffffffffffffffff1690506000600760009054906101000a900473ffffffffffffffffffffffffffffffffffffffff169050612043828461203e600860009054906101000a90046dffffffffffffffffffffffffffff166dffffffffffffffffffffffffffff168673ffffffffffffffffffffffffffffffffffffffff166370a08231306040518263ffffffff1660e01b8152600401611fe091906138c1565b60206040518083038186803b158015611ff857600080fd5b505afa15801561200c573d6000803e3d6000fd5b505050506040513d601f19601f8201168201806040525081019061203091906134a6565b61274990919063ffffffff16565b6125a9565b612114818461210f6008600e9054906101000a90046dffffffffffffffffffffffffffff166dffffffffffffffffffffffffffff168573ffffffffffffffffffffffffffffffffffffffff166370a08231306040518263ffffffff1660e01b81526004016120b191906138c1565b60206040518083038186803b1580156120c957600080fd5b505afa1580156120dd573d6000803e3d6000fd5b505050506040513d601f19601f8201168201806040525081019061210191906134a6565b61274990919063ffffffff16565b6125a9565b50506001600c8190555050565b600560009054906101000a900473ffffffffffffffffffffffffffffffffffffffff1681565b600760009054906101000a900473ffffffffffffffffffffffffffffffffffffffff1681565b428410156121b0576040517f08c379a00000000000000000000000000000000000000000000000000000000081526004016121a790613b11565b60405180910390fd5b60006003547f6e71edae12b1b97f4d1f60370fef10105fa2faae0126114a169c64845d6126c960001b898989600460008e73ffffffffffffffffffffffffffffffffffffffff1673ffffffffffffffffffffffffffffffffffffffff168152602001908152602001600020600081548092919061222c90614026565b919050558a60405160200161224696959493929190613989565b6040516020818303038152906040528051906020012060405160200161226d92919061388a565b6040516020818303038152906040528051906020012090506000600182868686604051600081526020016040526040516122aa94939291906139ea565b6020604051602081039080840390855afa1580156122cc573d6000803e3d6000fd5b505050602060405103519050600073ffffffffffffffffffffffffffffffffffffffff168173ffffffffffffffffffffffffffffffffffffffff161415801561234057508873ffffffffffffffffffffffffffffffffffffffff168173ffffffffffffffffffffffffffffffffffffffff16145b61237f576040517f08c379a000000000000000000000000000000000000000000000000000000000815260040161237690613b91565b60405180910390fd5b61238a898989612a53565b505050505050505050565b6002602052816000526040600020602052806000526040600020600091509150505481565b6001600c54146123ff576040517f08c379a00000000000000000000000000000000000000000000000000000000081526004016123f690613b71565b60405180910390fd5b6000600c8190555061259f600660009054906101000a900473ffffffffffffffffffffffffffffffffffffffff1673ffffffffffffffffffffffffffffffffffffffff166370a08231306040518263ffffffff1660e01b815260040161246591906138c1565b60206040518083038186803b15801561247d57600080fd5b505afa158015612491573d6000803e3d6000fd5b505050506040513d601f19601f820116820180604052508101906124b591906134a6565b600760009054906101000a900473ffffffffffffffffffffffffffffffffffffffff1673ffffffffffffffffffffffffffffffffffffffff166370a08231306040518263ffffffff1660e01b815260040161251091906138c1565b60206040518083038186803b15801561252857600080fd5b505afa15801561253c573d6000803e3d6000fd5b505050506040513d601f19601f8201168201806040525081019061256091906134a6565b600860009054906101000a90046dffffffffffffffffffffffffffff166008600e9054906101000a90046dffffffffffffffffffffffffffff1661275f565b6001600c81905550565b6000808473ffffffffffffffffffffffffffffffffffffffff166040518060400160405280601981526020017f7472616e7366657228616464726573732c75696e7432353629000000000000008152508051906020012085856040516024016126139291906138dc565b604051602081830303815290604052907bffffffffffffffffffffffffffffffffffffffffffffffffffffffff19166020820180517bffffffffffffffffffffffffffffffffffffffffffffffffffffffff838183161783525050505060405161267d9190613873565b6000604051808303816000865af19150503d80600081146126ba576040519150601f19603f3d011682016040523d82523d6000602084013e6126bf565b606091505b50915091508180156126ed57506000815114806126ec5750808060200190518101906126eb919061347d565b5b5b61272c576040517f08c379a000000000000000000000000000000000000000000000000000000000815260040161272390613bb1565b60405180910390fd5b5050505050565b600081836127419190613e71565b905092915050565b600081836127579190613ecb565b905092915050565b6dffffffffffffffffffffffffffff8016841115801561278f57506dffffffffffffffffffffffffffff80168311155b6127ce576040517f08c379a00000000000000000000000000000000000000000000000000000000081526004016127c590613b51565b60405180910390fd5b6000640100000000426127e19190614079565b905060006008601c9054906101000a900463ffffffff16826128039190613eff565b905060008163ffffffff1611801561282c57506000846dffffffffffffffffffffffffffff1614155b801561284957506000836dffffffffffffffffffffffffffff1614155b1561294f578063ffffffff1661288e8561286286613179565b7bffffffffffffffffffffffffffffffffffffffffffffffffffffffff166131ad90919063ffffffff16565b7bffffffffffffffffffffffffffffffffffffffffffffffffffffffff166128b69190613e71565b600960008282546128c79190613d63565b925050819055508063ffffffff1661290e846128e287613179565b7bffffffffffffffffffffffffffffffffffffffffffffffffffffffff166131ad90919063ffffffff16565b7bffffffffffffffffffffffffffffffffffffffffffffffffffffffff166129369190613e71565b600a60008282546129479190613d63565b925050819055505b85600860006101000a8154816dffffffffffffffffffffffffffff02191690836dffffffffffffffffffffffffffff160217905550846008600e6101000a8154816dffffffffffffffffffffffffffff02191690836dffffffffffffffffffffffffffff160217905550816008601c6101000a81548163ffffffff021916908363ffffffff1602179055507f1c411e9a96e071241c2f21f7726b17ae89e3cab4c78be50e062b03a9fffbbad1600860009054906101000a90046dffffffffffffffffffffffffffff166008600e9054906101000a90046dffffffffffffffffffffffffffff16604051612a43929190613c11565b60405180910390a1505050505050565b80600260008573ffffffffffffffffffffffffffffffffffffffff1673ffffffffffffffffffffffffffffffffffffffff16815260200190815260200160002060008473ffffffffffffffffffffffffffffffffffffffff1673ffffffffffffffffffffffffffffffffffffffff168152602001908152602001600020819055508173ffffffffffffffffffffffffffffffffffffffff168373ffffffffffffffffffffffffffffffffffffffff167f8c5be1e5ebec7d5bd14f71427d1e84f3dd0314c0f7b2291e5b200ac8c7c3b92583604051612b319190613c71565b60405180910390a3505050565b612b9081600160008673ffffffffffffffffffffffffffffffffffffffff1673ffffffffffffffffffffffffffffffffffffffff1681526020019081526020016000205461274990919063ffffffff16565b600160008573ffffffffffffffffffffffffffffffffffffffff1673ffffffffffffffffffffffffffffffffffffffff16815260200190815260200160002081905550612c2581600160008573ffffffffffffffffffffffffffffffffffffffff1673ffffffffffffffffffffffffffffffffffffffff168152602001908152602001600020546131d390919063ffffffff16565b600160008473ffffffffffffffffffffffffffffffffffffffff1673ffffffffffffffffffffffffffffffffffffffff168152602001908152602001600020819055508173ffffffffffffffffffffffffffffffffffffffff168373ffffffffffffffffffffffffffffffffffffffff167fddf252ad1be2c89b69c2b068fc378daa952ba7f163c4a11628f55a4df523b3ef83604051612cc59190613c71565b60405180910390a3505050565b600080600560009054906101000a900473ffffffffffffffffffffffffffffffffffffffff1673ffffffffffffffffffffffffffffffffffffffff1663017e7e586040518163ffffffff1660e01b815260040160206040518083038186803b158015612d3d57600080fd5b505afa158015612d51573d6000803e3d6000fd5b505050506040513d601f19601f82011682018060405250810190612d7591906132ef565b9050600073ffffffffffffffffffffffffffffffffffffffff168173ffffffffffffffffffffffffffffffffffffffff16141591506000600b5490508215612e985760008114612e93576000612dfc612df7866dffffffffffffffffffffffffffff16886dffffffffffffffffffffffffffff1661273390919063ffffffff16565b612eb2565b90506000612e0983612eb2565b905080821115612e90576000612e3c612e2b838561274990919063ffffffff16565b60005461273390919063ffffffff16565b90506000612e6683612e5860058761273390919063ffffffff16565b6131d390919063ffffffff16565b905060008183612e769190613dea565b90506000811115612e8c57612e8b8782612f2c565b5b5050505b50505b612eaa565b60008114612ea9576000600b819055505b5b505092915050565b60006003821115612f195781905060006001600284612ed19190613dea565b612edb9190613d63565b90505b81811015612f13578091506002818285612ef89190613dea565b612f029190613d63565b612f0c9190613dea565b9050612ede565b50612f27565b60008214612f2657600190505b5b919050565b612f41816000546131d390919063ffffffff16565b600081905550612f9981600160008573ffffffffffffffffffffffffffffffffffffffff1673ffffffffffffffffffffffffffffffffffffffff168152602001908152602001600020546131d390919063ffffffff16565b600160008473ffffffffffffffffffffffffffffffffffffffff1673ffffffffffffffffffffffffffffffffffffffff168152602001908152602001600020819055508173ffffffffffffffffffffffffffffffffffffffff16600073ffffffffffffffffffffffffffffffffffffffff167fddf252ad1be2c89b69c2b068fc378daa952ba7f163c4a11628f55a4df523b3ef8360405161303a9190613c71565b60405180910390a35050565b60008183106130555781613057565b825b905092915050565b6130b181600160008573ffffffffffffffffffffffffffffffffffffffff1673ffffffffffffffffffffffffffffffffffffffff1681526020019081526020016000205461274990919063ffffffff16565b600160008473ffffffffffffffffffffffffffffffffffffffff1673ffffffffffffffffffffffffffffffffffffffff168152602001908152602001600020819055506131098160005461274990919063ffffffff16565b600081905550600073ffffffffffffffffffffffffffffffffffffffff168273ffffffffffffffffffffffffffffffffffffffff167fddf252ad1be2c89b69c2b068fc378daa952ba7f163c4a11628f55a4df523b3ef8360405161316d9190613c71565b60405180910390a35050565b60006e010000000000000000000000000000826dffffffffffffffffffffffffffff166131a69190613e1b565b9050919050565b6000816dffffffffffffffffffffffffffff16836131cb9190613db9565b905092915050565b600081836131e19190613d63565b905092915050565b6000813590506131f88161443e565b92915050565b60008151905061320d8161443e565b92915050565b60008151905061322281614455565b92915050565b6000813590506132378161446c565b92915050565b60008083601f84011261324f57600080fd5b8235905067ffffffffffffffff81111561326857600080fd5b60208301915083600182028301111561328057600080fd5b9250929050565b60008135905061329681614483565b92915050565b6000815190506132ab81614483565b92915050565b6000813590506132c08161449a565b92915050565b6000602082840312156132d857600080fd5b60006132e6848285016131e9565b91505092915050565b60006020828403121561330157600080fd5b600061330f848285016131fe565b91505092915050565b6000806040838503121561332b57600080fd5b6000613339858286016131e9565b925050602061334a858286016131e9565b9150509250929050565b60008060006060848603121561336957600080fd5b6000613377868287016131e9565b9350506020613388868287016131e9565b925050604061339986828701613287565b9150509250925092565b600080600080600080600060e0888a0312156133be57600080fd5b60006133cc8a828b016131e9565b97505060206133dd8a828b016131e9565b96505060406133ee8a828b01613287565b95505060606133ff8a828b01613287565b94505060806134108a828b016132b1565b93505060a06134218a828b01613228565b92505060c06134328a828b01613228565b91505092959891949750929550565b6000806040838503121561345457600080fd5b6000613462858286016131e9565b925050602061347385828601613287565b9150509250929050565b60006020828403121561348f57600080fd5b600061349d84828501613213565b91505092915050565b6000602082840312156134b857600080fd5b60006134c68482850161329c565b91505092915050565b6000806000806000608086880312156134e757600080fd5b60006134f588828901613287565b955050602061350688828901613287565b9450506040613517888289016131e9565b935050606086013567ffffffffffffffff81111561353457600080fd5b6135408882890161323d565b92509250509295509295909350565b61355881613f33565b82525050565b61356781613f45565b82525050565b61357681613f51565b82525050565b61358d61358882613f51565b61406f565b82525050565b600061359f8385613d2b565b93506135ac838584613fe4565b6135b583614108565b840190509392505050565b60006135cb82613d15565b6135d58185613d3c565b93506135e5818560208601613ff3565b80840191505092915050565b60006135fc82613d20565b6136068185613d47565b9350613616818560208601613ff3565b61361f81614108565b840191505092915050565b6000613637600d83613d47565b915061364282614119565b602082019050919050565b600061365a601683613d47565b915061366582614142565b602082019050919050565b600061367d600283613d58565b91506136888261416b565b600282019050919050565b60006136a0602983613d47565b91506136ab82614194565b604082019050919050565b60006136c3601683613d47565b91506136ce826141e3565b602082019050919050565b60006136e6601583613d47565b91506136f18261420c565b602082019050919050565b6000613709602983613d47565b915061371482614235565b604082019050919050565b600061372c601383613d47565b915061373782614284565b602082019050919050565b600061374f602283613d47565b915061375a826142ad565b604082019050919050565b6000613772601483613d47565b915061377d826142fc565b602082019050919050565b6000613795601283613d47565b91506137a082614325565b602082019050919050565b60006137b8601d83613d47565b91506137c38261434e565b602082019050919050565b60006137db601b83613d47565b91506137e682614377565b602082019050919050565b60006137fe602583613d47565b9150613809826143a0565b604082019050919050565b6000613821602683613d47565b915061382c826143ef565b604082019050919050565b61384081613f5b565b82525050565b61384f81613fbd565b82525050565b61385e81613fc7565b82525050565b61386d81613fd7565b82525050565b600061387f82846135c0565b915081905092915050565b600061389582613670565b91506138a1828561357c565b6020820191506138b1828461357c565b6020820191508190509392505050565b60006020820190506138d6600083018461354f565b92915050565b60006040820190506138f1600083018561354f565b6138fe6020830184613846565b9392505050565b600060808201905061391a600083018861354f565b6139276020830187613846565b6139346040830186613846565b8181036060830152613947818486613593565b90509695505050505050565b6000602082019050613968600083018461355e565b92915050565b6000602082019050613983600083018461356d565b92915050565b600060c08201905061399e600083018961356d565b6139ab602083018861354f565b6139b8604083018761354f565b6139c56060830186613846565b6139d26080830185613846565b6139df60a0830184613846565b979650505050505050565b60006080820190506139ff600083018761356d565b613a0c6020830186613864565b613a19604083018561356d565b613a26606083018461356d565b95945050505050565b60006020820190508181036000830152613a4981846135f1565b905092915050565b60006020820190508181036000830152613a6a8161362a565b9050919050565b60006020820190508181036000830152613a8a8161364d565b9050919050565b60006020820190508181036000830152613aaa81613693565b9050919050565b60006020820190508181036000830152613aca816136b6565b9050919050565b60006020820190508181036000830152613aea816136d9565b9050919050565b60006020820190508181036000830152613b0a816136fc565b9050919050565b60006020820190508181036000830152613b2a8161371f565b9050919050565b60006020820190508181036000830152613b4a81613742565b9050919050565b60006020820190508181036000830152613b6a81613765565b9050919050565b60006020820190508181036000830152613b8a81613788565b9050919050565b60006020820190508181036000830152613baa816137ab565b9050919050565b60006020820190508181036000830152613bca816137ce565b9050919050565b60006020820190508181036000830152613bea816137f1565b9050919050565b60006020820190508181036000830152613c0a81613814565b9050919050565b6000604082019050613c266000830185613837565b613c336020830184613837565b9392505050565b6000606082019050613c4f6000830186613837565b613c5c6020830185613837565b613c696040830184613855565b949350505050565b6000602082019050613c866000830184613846565b92915050565b6000604082019050613ca16000830185613846565b613cae6020830184613846565b9392505050565b6000608082019050613cca6000830187613846565b613cd76020830186613846565b613ce46040830185613846565b613cf16060830184613846565b95945050505050565b6000602082019050613d0f6000830184613864565b92915050565b600081519050919050565b600081519050919050565b600082825260208201905092915050565b600081905092915050565b600082825260208201905092915050565b600081905092915050565b6000613d6e82613fbd565b9150613d7983613fbd565b9250827fffffffffffffffffffffffffffffffffffffffffffffffffffffffffffffffff03821115613dae57613dad6140aa565b5b828201905092915050565b6000613dc482613f95565b9150613dcf83613f95565b925082613ddf57613dde6140d9565b5b828204905092915050565b6000613df582613fbd565b9150613e0083613fbd565b925082613e1057613e0f6140d9565b5b828204905092915050565b6000613e2682613f95565b9150613e3183613f95565b9250817bffffffffffffffffffffffffffffffffffffffffffffffffffffffff0483118215151615613e6657613e656140aa565b5b828202905092915050565b6000613e7c82613fbd565b9150613e8783613fbd565b9250817fffffffffffffffffffffffffffffffffffffffffffffffffffffffffffffffff0483118215151615613ec057613ebf6140aa565b5b828202905092915050565b6000613ed682613fbd565b9150613ee183613fbd565b925082821015613ef457613ef36140aa565b5b828203905092915050565b6000613f0a82613fc7565b9150613f1583613fc7565b925082821015613f2857613f276140aa565b5b828203905092915050565b6000613f3e82613f75565b9050919050565b60008115159050919050565b6000819050919050565b60006dffffffffffffffffffffffffffff82169050919050565b600073ffffffffffffffffffffffffffffffffffffffff82169050919050565b60007bffffffffffffffffffffffffffffffffffffffffffffffffffffffff82169050919050565b6000819050919050565b600063ffffffff82169050919050565b600060ff82169050919050565b82818337600083830152505050565b60005b83811015614011578082015181840152602081019050613ff6565b83811115614020576000848401525b50505050565b600061403182613fbd565b91507fffffffffffffffffffffffffffffffffffffffffffffffffffffffffffffffff821415614064576140636140aa565b5b600182019050919050565b6000819050919050565b600061408482613fbd565b915061408f83613fbd565b92508261409f5761409e6140d9565b5b828206905092915050565b7f4e487b7100000000000000000000000000000000000000000000000000000000600052601160045260246000fd5b7f4e487b7100000000000000000000000000000000000000000000000000000000600052601260045260246000fd5b6000601f19601f8301169050919050565b7f436f6e7665796f7256323a204b00000000000000000000000000000000000000600082015250565b7f436f6e7665796f7256323a20494e56414c49445f544f00000000000000000000600082015250565b7f1901000000000000000000000000000000000000000000000000000000000000600082015250565b7f436f6e7665796f7256323a20494e53554646494349454e545f4c49515549444960008201527f54595f4255524e45440000000000000000000000000000000000000000000000602082015250565b7f436f6e7665796f7256323a20464f5242494444454e2100000000000000000000600082015250565b7f436f6e7665796f7256323a20464f5242494444454e0000000000000000000000600082015250565b7f436f6e7665796f7256323a20494e53554646494349454e545f4c49515549444960008201527f54595f4d494e5445440000000000000000000000000000000000000000000000602082015250565b7f436f6e7665796f7256323a204558504952454400000000000000000000000000600082015250565b7f436f6e7665796f7256323a20494e53554646494349454e545f4c49515549444960008201527f5459000000000000000000000000000000000000000000000000000000000000602082015250565b7f436f6e7665796f7256323a204f564552464c4f57000000000000000000000000600082015250565b7f436f6e7665796f7256323a204c4f434b45440000000000000000000000000000600082015250565b7f436f6e7665796f7256323a20494e56414c49445f5349474e4154555245000000600082015250565b7f436f6e7665796f7256323a205452414e534645525f4641494c45440000000000600082015250565b7f436f6e7665796f7256323a20494e53554646494349454e545f494e5055545f4160008201527f4d4f554e54000000000000000000000000000000000000000000000000000000602082015250565b7f436f6e7665796f7256323a20494e53554646494349454e545f4f55545055545f60008201527f414d4f554e540000000000000000000000000000000000000000000000000000602082015250565b61444781613f33565b811461445257600080fd5b50565b61445e81613f45565b811461446957600080fd5b50565b61447581613f51565b811461448057600080fd5b50565b61448c81613fbd565b811461449757600080fd5b50565b6144a381613fd7565b81146144ae57600080fd5b5056fea264697066735822122073c8cffd1f0d2827251c994f716b7235a521c6b40071f0eea6e8fda8fdbe45e464736f6c63430008020033a2646970667358221220b5dff0ed021a407dccc8db9b13b6284934ac5e2135d8ac9b98b819c04a20c59864736f6c63430008020033",
  "linkReferences": {},
  "deployedLinkReferences": {}
}